:100000003FC067C158C057C056C055C054C053C048
:1000100052C051C050C04FC04EC04DC04CC04BC06C
:100020004AC049C048C009021200010100C00A09C3
:10003000040000000000000012011001FF00000891
:10004000C016DC05000101020001180350006F001A
:100050007700650072005300770069007400630048
:1000600068001A037700770077002E006F006200A7
:100070006400650076002E0061007400040309042A
:1000800011241FBECFE5D4E0DEBFCDBF10E0A0E657
:10009000B0E0E2E7F5E002C005900D92A436B107AA
:1000A000D9F720E0A4E6B0E001C01D92A139B20763
:1000B000E1F745D25CC2A4CFCF93DF938091750066
:1000C000835087FD8FC0909171009D3209F088C0E8
:1000D000883009F085C080917200CCE0D0E0C81B68
:1000E000D109C758DF4F83EC809365008AE5809380
:1000F0006100109264002881822F807619F0CE0171
:10010000FCD165C08A8110926E00998191110BC05B
:100110002F7119F481E080936E0010926F002EE62B
:1001200030E082E050C0953019F4809376003DC0F5
:100130009630A9F59B81913019F488E390E004C0D2
:10014000923041F486E290E09093740080937300C3
:1001500082E121C09330F1F4811108C08CE790E076
:10016000909374008093730084E015C0813041F453
:1001700082E690E090937400809373008AE10BC054
:10018000823041F48AE490E090937400809373008D
:1001900088E101C080E090E49093640018C098303A
:1001A00079F0993031F4809378002EE630E080E0E9
:1001B0000AC081E09A3009F080E02EE630E003C00A
:1001C00028E730E081E030937400209373009F8132
:1001D000911104C09E81981708F4892F80936000C4
:1001E000109275008091610084FF46C0809160008C
:1001F0008F3F09F441C0C82F893008F0C8E08C1B3C
:10020000809360009091650088E88927809365005D
:10021000CC2331F1409173005091740080916400BF
:1002200086FF0AC0A6E6B0E0FA019C2F84918D9368
:1002300031969150D9F708C0DA01E6E6F0E09C2F3C
:100240008D9181939150E1F72FEF2C0F30E02F5FCC
:100250003F4FCA01820F931F9093740080937300E5
:100260006C2F86E690E031D0CC5FCC3019F08FEF68
:1002700080936000C093610084E190B3947131F485
:100280008150D9F71092760010927000DF91CF91D3
:10029000089585B7826085BF8BB780648BBF089552
:1002A000A82FB92F80E090E041E050EA609530E05F
:1002B00009C02D9182279795879510F0842795275F
:1002C000305EC8F36F5FA8F30895EADF8D939D93C6
:1002D0000895CF93CFB7CF93DF93C395849BE9F76E
:1002E000849B0BC0849B09C0849B07C0849B05C072
:1002F000849B03C0849B01C089C06F93C09172002E
:10030000DD27C758DF4F2F9365E5849B03C02F91EE
:100310006F91E6CF0F931F934F9320E040E15F93DF
:1003200000B3047104FB27F93F9350E03BE039C070
:10033000147140642F77012F5F5F1EC0406810B3B7
:1003400014712F7752501FC0406400B32F7704718F
:10035000D1F15F5F00C023C0406210B32F771471EA
:1003600091F15F5F00C025C004711027515012F455
:100370005D5F0000115027952C3F10B3C8F6147133
:100380000127015027952C3FC8F64227499300B317
:10039000047110274F73115027952C3FA8F64695EE
:1003A000469510B3147179F00127015027952C3F21
:1003B00098F66B5A60F3315000B3B0F600C010E409
:1003C0001ABF002717C03B503195C31BD04010E423
:1003D0001ABF0881033CF9F00B34E9F0209170005A
:1003E0001981110F1213EDCF093651F10D3211F0B1
:1003F000013E39F7009377003F915F914F911F9134
:100400000F912F916F91CAB7C6FD67CFDF91CF9142
:10041000CFBFCF91189520917700222369F31091D7
:100420007500112339F534303AF13093750020937B
:100430007100109172003BE0311B309372001CC0C0
:10044000009175000130B4F40AE53091610034FD8B
:1004500014C000936100C5E6D0E013C0052710E08A
:1004600000C0000002BB1AC0052710E0221F1DC0FB
:1004700010E021C04AE502C032ED432FC4E1D0E0D4
:1004800032E011B31461949A02B311BB54E120E835
:1004900065E320FF052702BB279517951C3FF0F663
:1004A0006695B8F7B1F720FF052702BB279517958A
:1004B0001C3FD0F62795179517FF052700001C3F16
:1004C00002BBB0F629913A9519F70B7E1091760090
:1004D000110FC651D04002BB11F01093700010E410
:1004E0001ABF006111B31B7E402F4B7E54E05A951A
:1004F000F1F702BB11BB42BB7FCFCF93DF93CDB7E8
:10050000DEB728970FB6F894DEBF0FBECDBFFC0153
:10051000818181110AC081E088BBCE010196909350
:1005200074008093730084E001C080E028960FB6C9
:10053000F894DEBF0FBECDBFDF91CF910895A9DE45
:10054000789481E087BB88B388BB80E487B987E86B
:1005500086B9B2DD87B1887F87B9369A3699FECFE2
:1005600084B195B19093900080938F00F2CFF8946E
:02057000FFCFBB
:04057200FF5A02002A
:00000001FF
